:0100000001FE
:0100010000FE
:0100020000FD
:0100030000FC
:0100040001FA
:0100050001F9
:0100060000F9
:0100070000F8
:0100080000F7
:0100090000F6
:01000A0000F5
:01000B0000F4
:01000C0001F2
:01000D0001F1
:01000E0000F1
:01000F0000F0
:0100100001EE
:0100110001ED
:0100120000ED
:0100130001EB
:0100140001EA
:0100150001E9
:0100160000E9
:0100170000E8
:0100180001E6
:0100190001E5
:01001A0001E4
:01001B0001E3
:01001C0000E3
:01001D0000E2
:01001E0001E0
:01001F0001DF
:0100200000DF
:0100210000DE
:0100220001DC
:0100230000DC
:0100240000DB
:0100250000DA
:0100260000D9
:0100270001D7
:0100280000D7
:0100290000D6
:01002A0000D5
:01002B0000D4
:01002C0000D3
:01002D0001D1
:01002E0000D1
:01002F0000D0
:0100300000CF
:0100310000CE
:0100320001CC
:0100330000CC
:0100340000CB
:0100350000CA
:0100360000C9
:0100370001C7
:0100380000C7
:0100390000C6
:01003A0001C4
:01003B0001C3
:01003C0001C2
:01003D0000C2
:01003E0000C1
:01003F0000C0
:0100400001BE
:0100410001BD
:0100420001BC
:0100430001BB
:0100440001BA
:0100450001B9
:0100460001B8
:0100470000B8
:0100480000B7
:0100490000B6
:01004A0001B4
:01004B0001B3
:01004C0001B2
:01004D0000B2
:01004E0000B1
:01004F0000B0
:0100500000AF
:0100510000AE
:0100520000AD
:0100530001AB
:0100540001AA
:0100550001A9
:0100560001A8
:0100570001A7
:0100580001A6
:0100590001A5
:01005A0001A4
:01005B0001A3
:01005C0001A2
:01005D0001A1
:01005E0001A0
:01005F00019F
:01006000009F
:01006100009E
:01006200019C
:01006300009C
:01006400009B
:010065000199
:010066000198
:010067000197
:010068000196
:010069000195
:01006A000095
:01006B000193
:01006C000192
:01006D000191
:01006E000190
:01006F00018F
:01007000008F
:01007100008E
:01007200018C
:01007300018B
:01007400018A
:01007500008A
:010076000188
:010077000187
:010078000087
:010079000086
:01007A000085
:01007B000183
:01007C000182
:01007D000082
:01007E000081
:01007F00017F
:00000001FF
