:08000000A06B895BD327DE45EC
:08000100058716E6B74AE88BFB
:080002004B5A6D892F85C443A0
:0800030083F1CE165B1F8CD6C1
:0800040002E69C78E37E5DED4D
:0800050014DC68A5D6BCEE8EE8
:080006003DB8800BB82DD91D97
:080007007A705103245BE76AE3
:08000800E4A4E7065CA6CF9515
:08000900880D8A0DED598B7A78
:08000A00500B040F8FA742B058
:08000B00B513591A0B0E957490
:08000C003A67E72007187EFCAB
:08000D00208A9F044E31F9A87E
:08000E0040117A189C33B25531
:08000F009163B535683731AA91
:080010000000000000000000E8
:080011000000000000000000E7
:080012000000000000000000E6
:080013000000000000000000E5
:00000001FF
