:0100000001FE
:0100010000FE
:0100020000FD
:0100030001FB
:0100040001FA
:0100050000FA
:0100060000F9
:0100070000F8
:0100080000F7
:0100090001F5
:01000A0001F4
:01000B0001F3
:01000C0001F2
:01000D0001F1
:01000E0001F0
:01000F0000F0
:0100100000EF
:0100110000EE
:0100120000ED
:0100130001EB
:0100140001EA
:0100150000EA
:0100160000E9
:0100170000E8
:0100180000E7
:0100190000E6
:01001A0000E5
:01001B0001E3
:01001C0001E2
:01001D0001E1
:01001E0001E0
:01001F0000E0
:0100200000DF
:0100210001DD
:0100220001DC
:0100230000DC
:0100240000DB
:0100250000DA
:0100260000D9
:0100270000D8
:0100280000D7
:0100290000D6
:01002A0000D5
:01002B0001D3
:01002C0000D3
:01002D0001D1
:01002E0001D0
:01002F0000D0
:0100300000CF
:0100310001CD
:0100320001CC
:0100330000CC
:0100340000CB
:0100350001C9
:0100360001C8
:0100370000C8
:0100380000C7
:0100390001C5
:01003A0001C4
:01003B0000C4
:01003C0001C2
:01003D0001C1
:01003E0001C0
:01003F0001BF
:0100400001BE
:0100410001BD
:0100420001BC
:0100430000BC
:0100440001BA
:0100450001B9
:0100460001B8
:0100470001B7
:0100480001B6
:0100490000B6
:01004A0000B5
:01004B0001B3
:01004C0000B3
:01004D0001B1
:01004E0001B0
:01004F0000B0
:0100500001AE
:0100510000AE
:0100520000AD
:0100530001AB
:0100540001AA
:0100550001A9
:0100560001A8
:0100570001A7
:0100580001A6
:0100590000A6
:01005A0000A5
:01005B0000A4
:01005C0001A2
:01005D0001A1
:01005E0000A1
:01005F0000A0
:01006000019E
:01006100019D
:01006200019C
:01006300019B
:01006400009B
:01006500009A
:010066000099
:010067000098
:010068000097
:010069000096
:01006A000194
:01006B000193
:01006C000192
:01006D000191
:01006E000091
:01006F000090
:01007000008F
:01007100008E
:01007200008D
:01007300008C
:01007400018A
:010075000189
:010076000089
:010077000088
:010078000186
:010079000185
:01007A000184
:01007B000084
:01007C000083
:01007D000082
:01007E000081
:01007F000080
:00000001FF
