:0100000000FF
:0100010000FE
:0100020001FC
:0100030001FB
:0100040000FB
:0100050000FA
:0100060001F8
:0100070001F7
:0100080000F7
:0100090000F6
:01000A0001F4
:01000B0001F3
:01000C0001F2
:01000D0001F1
:01000E0000F1
:01000F0000F0
:0100100001EE
:0100110001ED
:0100120001EC
:0100130000EC
:0100140001EA
:0100150001E9
:0100160000E9
:0100170000E8
:0100180001E6
:0100190000E6
:01001A0001E4
:01001B0000E4
:01001C0001E2
:01001D0001E1
:01001E0001E0
:01001F0001DF
:0100200000DF
:0100210000DE
:0100220001DC
:0100230001DB
:0100240000DB
:0100250000DA
:0100260001D8
:0100270001D7
:0100280000D7
:0100290000D6
:01002A0001D4
:01002B0000D4
:01002C0000D3
:01002D0000D2
:01002E0001D0
:01002F0001CF
:0100300000CF
:0100310000CE
:0100320000CD
:0100330001CB
:0100340000CB
:0100350000CA
:0100360000C9
:0100370000C8
:0100380000C7
:0100390000C6
:01003A0000C5
:01003B0000C4
:01003C0000C3
:01003D0000C2
:01003E0000C1
:01003F0000C0
:0100400000BF
:0100410000BE
:0100420001BC
:0100430001BB
:0100440001BA
:0100450000BA
:0100460001B8
:0100470001B7
:0100480000B7
:0100490000B6
:01004A0001B4
:01004B0001B3
:01004C0001B2
:01004D0001B1
:01004E0000B1
:01004F0000B0
:0100500001AE
:0100510001AD
:0100520001AC
:0100530000AC
:0100540001AA
:0100550001A9
:0100560000A9
:0100570000A8
:0100580001A6
:0100590001A5
:01005A0000A5
:01005B0001A3
:01005C0000A3
:01005D0000A2
:01005E0001A0
:01005F00019F
:01006000009F
:01006100009E
:01006200019C
:01006300019B
:01006400019A
:01006500009A
:010066000099
:010067000098
:010068000196
:010069000195
:01006A000095
:01006B000193
:01006C000192
:01006D000092
:01006E000190
:01006F00018F
:01007000008F
:01007100008E
:01007200008D
:01007300008C
:01007400008B
:010075000189
:010076000089
:010077000088
:010078000186
:010079000185
:01007A000085
:01007B000183
:01007C000083
:01007D000082
:01007E000081
:01007F000080
:00000001FF
