:0100000001FE
:0100010001FD
:0100020001FC
:0100030001FB
:0100040000FB
:0100050000FA
:0100060000F9
:0100070001F7
:0100080001F6
:0100090000F6
:01000A0000F5
:01000B0000F4
:01000C0001F2
:01000D0001F1
:01000E0001F0
:01000F0001EF
:0100100000EF
:0100110000EE
:0100120000ED
:0100130000EC
:0100140000EB
:0100150000EA
:0100160000E9
:0100170000E8
:0100180001E6
:0100190000E6
:01001A0000E5
:01001B0000E4
:01001C0000E3
:01001D0000E2
:01001E0001E0
:01001F0001DF
:0100200000DF
:0100210001DD
:0100220001DC
:0100230000DC
:0100240001DA
:0100250001D9
:0100260000D9
:0100270000D8
:0100280000D7
:0100290000D6
:01002A0000D5
:01002B0001D3
:01002C0000D3
:01002D0000D2
:01002E0001D0
:01002F0001CF
:0100300000CF
:0100310000CE
:0100320001CC
:0100330000CC
:0100340000CB
:0100350000CA
:0100360001C8
:0100370001C7
:0100380000C7
:0100390000C6
:01003A0001C4
:01003B0001C3
:01003C0000C3
:01003D0000C2
:01003E0000C1
:01003F0000C0
:0100400000BF
:0100410000BE
:0100420001BC
:0100430000BC
:0100440001BA
:0100450001B9
:0100460000B9
:0100470001B7
:0100480001B6
:0100490001B5
:01004A0000B5
:01004B0001B3
:01004C0001B2
:01004D0000B2
:01004E0000B1
:01004F0001AF
:0100500000AF
:0100510000AE
:0100520000AD
:0100530001AB
:0100540001AA
:0100550000AA
:0100560000A9
:0100570001A7
:0100580001A6
:0100590001A5
:01005A0001A4
:01005B0000A4
:01005C0000A3
:01005D0000A2
:01005E0000A1
:01005F0000A0
:01006000019E
:01006100019D
:01006200019C
:01006300019B
:01006400019A
:010065000199
:010066000198
:010067000197
:010068000196
:010069000195
:01006A000194
:01006B000193
:01006C000192
:01006D000092
:01006E000091
:01006F00018F
:01007000008F
:01007100008E
:01007200008D
:01007300018B
:01007400018A
:010075000189
:010076000188
:010077000088
:010078000186
:010079000185
:01007A000085
:01007B000183
:01007C000182
:01007D000082
:01007E000180
:01007F000080
:00000001FF
