:020000020000FC
:1000000000C00FEF0AB907EF04B93F980E945300F0
:100010000E9438000E943C00809A889A6E9A769AD4
:100020006A9A729A0E9455000E941700FDCF0E94A2
:1000300038000FE50CBD0E9451000BEA0EBD0E9476
:10004000320000E00EBD0E9432000EB50BB90E94D6
:1000500053000E943E000FE10CBD0E9436000E943A
:100060003E0008951DB517FFFDCF08952F9A0895FE
:100070002F98089528980895289A089570E00E946E
:100080004500739577FFFBCF089580E00E944C00F8
:10009000839587FFFBCF089590E0939592FFFDCF66
:1000A00008952C9808952C9A08950FE50CBD0E9490
:1000B000510000E20EBD0E94320007E80EBD0E9412
:1000C00032000E9453000E943E000FE10CBD0895D3
:00000001FF
