:0100000000FF
:0100010001FD
:0100020000FD
:0100030001FB
:0100040000FB
:0100050000FA
:0100060000F9
:0100070000F8
:0100080000F7
:0100090000F6
:01000A0000F5
:01000B0000F4
:01000C0000F3
:01000D0000F2
:01000E0000F1
:01000F0001EF
:0100100001EE
:0100110000EE
:0100120000ED
:0100130001EB
:0100140000EB
:0100150000EA
:0100160001E8
:0100170000E8
:0100180000E7
:0100190001E5
:01001A0001E4
:01001B0000E4
:01001C0001E2
:01001D0001E1
:01001E0000E1
:01001F0001DF
:0100200001DE
:0100210000DE
:0100220000DD
:0100230000DC
:0100240001DA
:0100250001D9
:0100260001D8
:0100270001D7
:0100280001D6
:0100290000D6
:01002A0000D5
:01002B0000D4
:01002C0001D2
:01002D0001D1
:01002E0000D1
:01002F0001CF
:0100300001CE
:0100310000CE
:0100320000CD
:0100330001CB
:0100340000CB
:0100350000CA
:0100360001C8
:0100370000C8
:0100380000C7
:0100390001C5
:01003A0001C4
:01003B0001C3
:01003C0000C3
:01003D0000C2
:01003E0001C0
:01003F0001BF
:0100400001BE
:0100410000BE
:0100420000BD
:0100430001BB
:0100440001BA
:0100450001B9
:0100460000B9
:0100470000B8
:0100480000B7
:0100490001B5
:01004A0001B4
:01004B0000B4
:01004C0001B2
:01004D0001B1
:01004E0001B0
:01004F0000B0
:0100500000AF
:0100510001AD
:0100520001AC
:0100530001AB
:0100540001AA
:0100550001A9
:0100560000A9
:0100570000A8
:0100580000A7
:0100590000A6
:01005A0000A5
:01005B0001A3
:01005C0000A3
:01005D0000A2
:01005E0001A0
:01005F00019F
:01006000009F
:01006100009E
:01006200009D
:01006300019B
:01006400019A
:010065000199
:010066000198
:010067000197
:010068000196
:010069000195
:01006A000095
:01006B000193
:01006C000093
:01006D000092
:01006E000190
:01006F00018F
:01007000018E
:01007100018D
:01007200018C
:01007300008C
:01007400008B
:01007500008A
:010076000188
:010077000187
:010078000087
:010079000086
:01007A000085
:01007B000084
:01007C000182
:01007D000082
:01007E000081
:01007F000080
:00000001FF
