:0100000000FF
:0100010001FD
:0100020000FD
:0100030001FB
:0100040000FB
:0100050000FA
:0100060001F8
:0100070001F7
:0100080000F7
:0100090000F6
:01000A0001F4
:01000B0000F4
:01000C0001F2
:01000D0001F1
:01000E0001F0
:01000F0001EF
:0100100000EF
:0100110000EE
:0100120001EC
:0100130000EC
:0100140000EB
:0100150000EA
:0100160000E9
:0100170000E8
:0100180000E7
:0100190000E6
:01001A0001E4
:01001B0000E4
:01001C0000E3
:01001D0001E1
:01001E0001E0
:01001F0001DF
:0100200001DE
:0100210001DD
:0100220000DD
:0100230001DB
:0100240001DA
:0100250001D9
:0100260001D8
:0100270001D7
:0100280000D7
:0100290000D6
:01002A0001D4
:01002B0000D4
:01002C0000D3
:01002D0000D2
:01002E0000D1
:01002F0000D0
:0100300000CF
:0100310000CE
:0100320001CC
:0100330001CB
:0100340001CA
:0100350001C9
:0100360001C8
:0100370001C7
:0100380000C7
:0100390000C6
:01003A0001C4
:01003B0001C3
:01003C0001C2
:01003D0001C1
:01003E0000C1
:01003F0000C0
:0100400001BE
:0100410001BD
:0100420000BD
:0100430001BB
:0100440000BB
:0100450000BA
:0100460000B9
:0100470000B8
:0100480001B6
:0100490001B5
:01004A0000B5
:01004B0001B3
:01004C0001B2
:01004D0000B2
:01004E0000B1
:01004F0000B0
:0100500001AE
:0100510001AD
:0100520000AD
:0100530001AB
:0100540001AA
:0100550000AA
:0100560001A8
:0100570001A7
:0100580000A7
:0100590000A6
:01005A0001A4
:01005B0001A3
:01005C0001A2
:01005D0001A1
:01005E0000A1
:01005F0000A0
:01006000019E
:01006100019D
:01006200019C
:01006300009C
:01006400009B
:010065000199
:010066000198
:010067000197
:010068000097
:010069000096
:01006A000194
:01006B000094
:01006C000093
:01006D000191
:01006E000190
:01006F00018F
:01007000008F
:01007100008E
:01007200008D
:01007300008C
:01007400008B
:010075000189
:010076000188
:010077000187
:010078000186
:010079000185
:01007A000085
:01007B000084
:01007C000182
:01007D000082
:01007E000081
:01007F00017F
:00000001FF
